:040000008A15D5295F
:10000800FF00030E83018316CF000A08D0008A017F
:1000180070088312A5007B08A4007C08A3007D0853
:10002800A2008B1C1E28061C1D2807128712B70168
:10003800B8018B100B1C4128061E3A280716871298
:100048000B30FB002630FC005D30FD00FD0B2A283C
:10005800FC0B2A28FB0B2A28000000000130B700FF
:100068000030B8000130D9000030DA00861E402880
:100078000130EA000030EB000B100B1D66280B1155
:1000880001308316CD02031CCE0300304E06031D3B
:100098004F2800304D06031D66284C30CD00003037
:1000A800CE008312071381018B121530FB004B30F1
:1000B800FC00BE30FD00FD0B5F28FC0B5F28FB0B2E
:1000C8005F28000083122508F0002408FB0023089D
:1000D800FC002208FD00831650088A004F0E83009A
:0600E800FF0E7F0E09006F
:0E00EE00213083120313FD00FD0B7B28080058
:1000FC000F3083120313FC004730FD00FD0B8428E6
:0A010C00FC0B84280000000008002E
:06011600000000000800DB
:10011C00FB14FB1F9828FF30F300F200F100F000F5
:08012C00FA0DF20CFF3008008F
:100134007B15FB1FA4280130F300F201F101F0014B
:08014400FA0DF20CFF30080077
:10014C0083120317901BAD2803138811AF280313D8
:10015C0088150317101BB52803130811B7280313B0
:10016C0008150317901ABD2803138810BF28031312
:10017C0088140317101AC52803130810C728031373
:10018C00081483165318CD2883120816CF2883120F
:10019C00081288168B20881203179019D82803137D
:1001AC008811DA280313881503171019E028031394
:1001BC000811E2280313081503179018E8280313F5
:1001CC008810EA280313881403171018F028031357
:1001DC000810F2280313081483165318F8288312F6
:1001EC000816FA288312081288168B208812831698
:0C01FC00531C02297E20032977200800F4
:0E020800F201F101F001F801F30100300800ED
:08021600FA1FF213003008008A
:10021E00831603136E08F2007208F100F20A6F08DB
:10022E00F000EF0A700884000008F00071088400E6
:10023E00700880007108840000080319272913290B
:06024E006E08F00008003C
:1002540083120313FA017308031D7A147708031D2C
:10026400FA147A0803197629033A031941297A18EA
:100274003E29F61F74297229F21F72297429720803
:100284008039FA00F21376088039F6137A060319D6
:100294004F297A08031972297429770873020319FC
:1002A4005629031C6A296E297608720203195D29EE
:1002B400031C6A296E297508710203196429031C39
:1002C4006A296E29740870020319762903186E29A5
:1002D400FA08031974297229FA080319722974296E
:1002E4000314080003100800031403150800080091
:1002F40083120313FB017308031D77080319D12923
:1003040072087606FA007708F3077E30031C8E29FC
:10031400F3020318D4299129F302031CD729720884
:10032400F8007108FC007008FD00F817F6170310B8
:10033400F201F101F0011830A1007D1CAB29740811
:10034400F00775080318750FF10776080318760F80
:10035400F207F20CF10CF00CF80CFC0CFD0C031081
:10036400A10B9F29F21BBB29F80DF00DF10DF20D25
:10037400F3037B1B701CCD29F81FCD29F00A031948
:10038400F10A0319F20A031DCD29F20CF10CF00C49
:10039400F30A0319D429FA1FF2130030D9290130C2
:1003A4000421D92902308E20D92904309A20000052
:0203B40008003F
:1003B60083120313F801F9011030FC00710DF80DDA
:1003C600F90D7408F8027508031C750FF902031875
:1003D600F3297408F80775080318750FF907031051
:0A03E600F00DF10DFC0BE1290800F9
:1003F00083120313FD01F801700803190034740619
:10040000FA00FA1BFD09FB01F41F082AF409F40A9B
:10041000F01F0C2AF009F00A70087404FA00FA1BA5
:10042000302A7408F802F00D700DF80D7408F80702
:10043000F00D0630FC00700DF80D74087018F8020D
:10044000701CF807F00DFC0B1B2A701CF8077B18BA
:100450003E2AFD1F0034F009F00AF809F80A0034BA
:10046000F41F3B2AF01B382A7008F800F001292AF3
:10047000F001F00A0034F009FB0A112AF80A7408A6
:100480007802031D292AF801F00AF01F292AFF34F7
:02049000080062
:100492008316031353106E08831203179000A620CD
:0604A2008316531408004C
:0E04A8008316031343088A00420882000800EE
:1004B6000E3083120313FD00FD0B5F2A00000800B7
:1004C600403083120313F0001F30F100F201F301F4
:0204D60008001C
:1004D800831203132230FC00F801F901FA01FB0131
:1004E800FC030319A22A0310FB0CFA0CF90CF80CF4
:1004F800F30CF20CF10CF00C031C742AFC03031926
:10050800942A7408F80775080318750FF907760810
:100518000318760FFA0777080318770FFB07782A6E
:100528007408F80775080318750FF9077608031893
:0E053800760FFA0777080318770FFB07080005
:1005460083160313EC01ED016108E8006208E90077
:100556006308EA006408EB006B08FF3A031DBD2A36
:100566006A08FF3A031DBD2A6908FF3A031DBD2A22
:100576006808FF3A031DC72A6508EE002730EF001A
:100586000F210330F000A82C0130E600EA1FD62A1E
:1005960080306A06F0007008EA00E60A6508840002
:1005A6002D308000E50A0030F0006B06031DE52AB9
:1005B60070086A06031DE52A70086906031DE52A08
:1005C6006808003A031DEE2A6508EE003530EF0094
:1005D6000F21F001A82C6B08FF3A031DFC2A6A08BC
:1005E600003A031DFC2A6908003A031DFC2A680824
:1005F600003A031D062B6508EE006C30EF000F2154
:100606006608F000A82C0030F4000030F500003039
:10061600F6007F30F7006808F0006908F1006A0804
:10062600F2006B08F3002A21013003180030F000B5
:10063600700803193B2B83166808F0006908F1005F
:100646006A08F2006B08F3000030F4000030F50091
:100656002030F6008230F7007A2170088316E80011
:100666007108E9007208EA007308EB00ED03062B37
:1006760083160030F4000030F5002030F60082309A
:10068600F7006808F0006908F1006A08F2006B08D4
:10069600F3002A210130031C0030F0007008031912
:1006A600712B83166808F0006908F1006A08F200E9
:1006B6006B08F300CD30F400CC30F5004C30F6007A
:1006C6007B30F7007A2170088316E8007108E9008C
:1006D6007208EA007308EB00ED0A3B2B8316FF3025
:1006E6006805F800FF306905F9007F306A05FA00F1
:1006F60000306B05FB007808F4007908F5007A08ED
:10070600F6007B08F700F40DF50DF60DF70D7410E5
:1007160000306805F00000306905F10000306A0518
:10072600F200FF306B05F3007008E8007108E9007D
:100736007208EA007308EB0074086804F000750894
:100746006904F10076086A04F20077086B04F30086
:100756007008E8007108E9007208EA007308EB0007
:100766007F306B02F0007008E7000130EB00700884
:10077600F4006808F0006908F1006A08F2006B08E6
:10078600F30074080319CE2BF00DF10DF20DF30DE5
:100796007010FF3EC52B7008E8007108E90072086A
:1007A600EA007308EB006B08303EF0006508840031
:1007B60070088000E50A80306D06F0008030013A4E
:1007C6007002031CEF2B8030063AF00080306D0675
:1007D6007002031CEF2BF62B650884002E30800078
:1007E600E50A0130EC000630E7006708003A031915
:1007F600542CEB016808F0006908F1006A08F20061
:100806006B08F300F00DF10DF20DF30D7010F00D05
:10081600F10DF20DF30D70106808F0076908031862
:10082600690FF1076A0803186A0FF2076B080318C5
:100836006B0FF3077008E8007108E9007208EA0018
:100846007308EB006808F0006908F1006A08F20016
:100856006B08F300F00DF10DF20DF30D701070083A
:10086600E8007108E9007208EA007308EB006B08FB
:10087600303EF0006508840070088000E50A6C08C8
:10088600003A031D522CED036D08003A031D522C4D
:10089600650884002E308000E50A0130EC00E7038D
:1008A600F82BFF30650784000008303A031D5D2CE5
:1008B600E503542CFF306507840000082E3A031D1B
:1008C600652CE5036D08003A0319A42C650884001D
:1008D60065308000E50A80306D06F0008030003A11
:1008E600700203187E2C650884002D308000E50A0E
:1008F6006D08003CED006D08E7008030093AF00015
:1009060080306D0670020318952C0A30F4006708D3
:10091600F000F8213030F00783166508840070086F
:100926008000E50A0A30F4006708F000F82178082C
:10093600F0003030F00783166508840070088000E8
:0C094600E50A650884008001F00108004B
:1009520083160313E103E1036108003C0318B62C7C
:10096200E103000000000000AD2C000000000000C8
:0609720000000000080077
:1009780083160313E401053064020318CA2C6408C3
:100988006307840020308000E40ABF2C64086307F2
:1009980084008001E40364086307E5000A30F4007A
:1009A800F5016108F0006208F100DB217808F00029
:1009B8007908F1003030F007831665088400700864
:1009C80080000A30F400F5016108F0006208F100C7
:1009D800DB2170088316E1007108E200003071061F
:1009E800031DF82C00307006031DFB2CFD2CE403BE
:0409F800CF2C0800F8
:1009FC0083120313FB01FA01F901F801A001730D35
:100A0C00F80D7408F8027508031C750FF9027608C6
:100A1C00031C760FFA027708031C770FFB02000108
:100A2C00031C0130A002F30D0730FC00730DF80D10
:100A3C00F90DFA0DFB0DA00D7408731C372DF8027F
:100A4C007508031C750FF9027608031C760FFA0261
:100A5C007708031C770FFB020001031C0130A00276
:100A6C00482DF80775080318750FF9077608031851
:100A7C00760FFA0777080318770FFB0700010318A6
:100A8C000130A007F30DFC0B1C2D720DF80DF90DA8
:100A9C00FA0DFB0DA00D7408731C662DF802750879
:100AAC00031C750FF9027608031C760FFA027708FF
:100ABC00031C770FFB020001031C0130A002772DF1
:100ACC00F80775080318750FF90776080318760FE1
:100ADC00FA0777080318770FFB070001031801309A
:100AEC00A007F20D0730FC00720DF80DF90DFA0D90
:100AFC00FB0DA00D7408721C952DF8027508031CD3
:100B0C00750FF9027608031C760FFA027708031C9E
:100B1C00770FFB020001031C0130A002A62DF80781
:100B2C0075080318750FF90776080318760FFA077E
:100B3C0077080318770FFB07000103180130A00793
:100B4C00F20DFC0B7A2D710DF80DF90DFA0DFB0D54
:100B5C00A00D7408721CC42DF8027508031C750FC7
:100B6C00F9027608031C760FFA027708031C770F3C
:100B7C00FB020001031C0130A002D52DF8077508FB
:100B8C000318750FF90776080318760FFA0777081C
:100B9C000318770FFB07000103180130A007F10DB4
:100BAC000730FC00710DF80DF90DFA0DFB0DA00DC1
:100BBC007408711CF32DF8027508031C750FF902EB
:100BCC007608031C760FFA027708031C770FFB02DA
:100BDC000001031C0130A002042EF807750803184D
:100BEC00750FF90776080318760FFA0777080318BC
:100BFC00770FFB07000103180130A007F10DFC0B68
:100C0C00D82D700DF80DF90DFA0DFB0DA00D740813
:100C1C00711C222EF8027508031C750FF902760858
:100C2C00031C760FFA027708031C770FFB020001F6
:100C3C00031C0130A002332EF80775080318750F3A
:100C4C00F90776080318760FFA0777080318770F59
:100C5C00FB07000103180130A007F00D0730FC0062
:100C6C00700DF80DF90DFA0DFB0DA00D7408701C2C
:100C7C00512EF8027508031C750FF9027608031C37
:100C8C00760FFA027708031C770FFB020001031C96
:100C9C000130A002622EF80775080318750FF907CA
:100CAC0076080318760FFA0777080318770FFB07F7
:100CBC00000103180130A007F00DFC0B362E701844
:100CCC00752E7408F80775080318750FF907760860
:100CDC000318760FFA0777080318770FFB0708003D
:100CEC00882E803083160313E1009B2EC030E10068
:100CFC009B2E9430E1009B2ED430E1009B2E803053
:100D0C00E1009B2E831603136108013A0319772E19
:100D1C006108023A03197C2E6108033A03197F2EED
:100D2C006108043A0319822E852E6203F0006108D3
:100D3C00F0077008E1007008831203179000A620DA
:100D4C0083165310E4016408630784000008031938
:100D5C00B72E6408630784000008EE004922E40AF9
:060D6C00A92E531408003B
:100D7200A1017208031DCE2E7108F2007008F10065
:100D8200F001A1157208031DCE2E7108F200F101C7
:100D9200A111211672080319DC2E2108F302031D8A
:100DA200031CE02E0310F21BE42EF00DF10DF20DE8
:100DB200F30BD42EE02E0130FC000421E72E02308A
:0E0DC200FC009A20E72E0430FC000B210800F4
:100DD000831603135508E1005608E2005708E300A4
:100DE0005808E400BD30E500A32201308312031748
:100DF0009000A62001308316E1000330E2002B3082
:100E0000E30076260230E1000830E200BD30E30066
:100E100076260630FB001330FC00AD30FD00FD0BE4
:100E20000F2FFC0B0F2FFB0B0F2F000000000130CA
:0A0E3000831203179000A6200800AB
:100E3A0083160313DA01DB015508DC005608DD00CE
:100E4A0080305606F00080307002031D2E2F0030CD
:100E5A00550203183C2F0130DA000030DB00550838
:100E6A00003CDC005608031C013EDD01DD025C0883
:100E7A00E1005D08E2005708E300BC240630D80010
:100E8A000030D9005908003C031D4D2F5808003C7A
:100E9A000318682F58085707F20001305802F0006B
:100EAA000030031C013E5902F10070085707840004
:100EBA000008F00072088400700880000130D8022F
:100ECA00031CD903472F57088400203080005A0892
:100EDA005B040319862FD801D901580857078400E3
:100EEA000008203A031D7D2FD80A0319D90A722F48
:100EFA000130D802031CD9035808570784002D3043
:040F0A00800008005B
:100F0E00831603178C1C8D2F0000872F0313550893
:100F1E00831203178D0083160313560883120317CB
:100F2E008C0083168C130C150B08F0008B135530A8
:100F3E008D00AA308D008C14F01BA72F8B13A82FB9
:060F4E008B170C110800D6
:100F5400831203137008F8007108F000F101F20124
:100F6400F301FB01FC019630F300FA017008F10073
:0C0F74007808F000F801F201B92608002E
:100F800083120313FB01FA01F9018030F800F10C20
:100F9000F00C031CD42F7408F90775080318750F9B
:100FA000FA070318FB0A0310F01FDC2F7408FA0776
:100FB00075080318750FFB07FB0CFA0CF90CF80CFD
:100FC000031CC72F7B08F3007A08F2007908F100B0
:060FD0007808F0000800A3
:100FD600831603135508831203178D0083168C138B
:0A0FE6000C1483120C08F000080040
:101000008A1163228A15E830F4000330F500F601F6
:10101000F7018A116C228A1570088316DD007108A9
:10102000DE007208DF007308E0005508F40056087F
:10103000F500F601F7018A11FE248A15700883165F
:10104000DD007108DE007208DF007308E000700840
:10105000F5007108F6007208F7007308F800F80C44
:10106000F70CF60CF50CF813F80CF70CF60CF50C65
:10107000F8137508F0007608F1007708F200780898
:10108000F300F30CF20CF10CF00CF3137008D90020
:101090007108DA008A1163228A1583165708F40052
:1010A0005808F500F601F7018A116C228A1583169B
:1010B0005908F9005A08FA00FB01FC010330F80056
:1010C0007908F4007A08F5007B08F6007C08F70040
:1010D000780803197228F40DF50DF60DF70D74104C
:1010E000FF3E69288A11FE248A1570088316DD00E8
:1010F0007108DE007208DF007308E0000A30F400B7
:101100000030F5005908F0005A08F1008A11DB217F
:101110008A1570088316D9007108DA000030710250
:10112000031D94280330700203189728EC285408F4
:1011300084006008003C031DA7285F08003C031DD5
:10114000A7285E08003C031DA7285D08003C031883
:10115000EA28510880045A080319C028DB01DC0181
:1011600000305C02031DB6285A085B020318C02831
:10117000E1018A11A9248A15DB0A0319DC0AB028C7
:101180005908E1008A11A9248A15520880055A08D5
:101190000319DC28DB01DC0100305C02031DD228CE
:1011A0005A085B020318DC28E1018A11A9248A1578
:1011B000DB0A0319DC0ACC285908E1008A11A924AA
:1011C0008A150130DD02031CDE02031CDF02031C52
:0A11D000E00299285208800508008B
:1011DA00831203139F01C0309F042609F000700890
:1011EA0083169F051F179F175508F000F00D701002
:1011FA00F00D7010F00D7010700883129F041F1408
:10120A008A115B228A151F151F1D0D290000092945
:10121A001F101E08F100F00183161E08F0040030AA
:04122A00F1040800C3
:10122E00831603135508D4005608F1000130F00060
:10123E00710803192629F00D7010FF3E2029700841
:10124E00D100F0097008D200803055078400700874
:0A125E008005841370088005080065
:10126800FF3083160313BA00FF30BB00FF30BC0009
:10127800FF3083129F01C0309F042609F0007008D8
:0E12880083169F051F179F1783121F1408005F
:101296008316031388120812081088100811881183
:1012A60083128812081288110811881008108A11F2
:1012B6007E208A158A117E208A158A117E208A153B
:1012C6008814081488168A118B208A1588128A11A8
:1012D6007E208A1588168A118B208A1588128A1113
:1012E6007E208A1588168A118B208A1588128A1103
:1012F6007E208A15081088168A118B208A15881276
:101306008A117E208A1588168A118B208A158812E2
:101316008810881588168A118B208A1588128A11DA
:101326007E208A158811081488168A118B208A1542
:101336008812081088168A118B208A1588128A113D
:101346007E208A1588168A118B208A158812081421
:1013560088168A118B208A1588128A117E208A1592
:10136600081088168A118B208A1588128815081588
:101376008814081488168A118B208A1588128A11F7
:0A1386007E208A1583165314080018
:101390008A1154228A150A128000840AC20A03198B
:0A13A000C30AF003031DC82908006A
:1013AA0040244B213421F13083168600051487012D
:1013BA0088018B178B150B16011747308100831292
:1013CA0081014C308316CD000030CE008312880193
:1013DA0007308316D5000630D60017210C30831249
:1013EA00031790008A11A6208A1501308316E1009E
:1013FA000130E200A730E3008A1176268A150B3005
:10140A00FB002630FC005D30FD00FD0B0A2AFC0BB8
:10141A000A2AFB0B0A2A0000000001308312031774
:10142A0090008A11A6208A158316D501ED20053071
:10143A00F4000030F5008A11C0278A15FF30F40045
:10144A000330F5008A11DB218A150A30F4000030D6
:10145A00F5008A11C0278A158A11AA278A157008E9
:10146A008316C4007108C5007208C6007308C70055
:10147A007008D5007108D6007208D7007308D80022
:10148A008A11E8268A150030F4000030F500783019
:10149A00F6008330F70083164408F0004508F1008F
:1014AA004608F2004708F3008A112A218A150130FA
:1014BA0003180030F00070080319ED2A0030F40018
:1014CA000030F5006830F6008330F70083164408D0
:1014DA00F0004508F1004608F2004708F3008A11B7
:1014EA002A218A15013003180030F0007008031908
:1014FA00B72ABC308316D5000230D600D030D700C8
:10150A000730D80000208B16013083120317900091
:10151A008A11A6208A1501308316E1000130E20003
:10152A003B30E3008A1176268A150630FB00133019
:10153A00FC00AD30FD00FD0BA02AFC0BA02AFB0B22
:10154A00A02A000000008312B90A0319BA0A32302D
:10155A008316D500831239088316D6008A11872785
:10156A008A15ED2A831203130618ED2A0716871225
:10157A000B30FB002630FC005D30FD00FD0BC32A5A
:10158A00FC0BC32AFB0BC32A000000000130B70082
:10159A000030B8000130031790008A11A6208A157E
:1015AA0001308316E1000130E2005B30E3008A116A
:1015BA0076268A150630FB001330FC00AD30FD009C
:1015CA00FD0BE52AFC0BE52AFB0BE52A00000000CF
:1015DA0083164408F4004508F5004608F600470853
:1015EA00F7000030F0000030F1004830F20084309B
:1015FA00F3008A112A218A15013003180030F000FD
:10160A007008031D142B00305A06031D0E2B0130DF
:10161A005906031D132B061A132B142B5E2B0030AD
:10162A003806031D1A2B01303706031D2E2B07120D
:10163A0087160830FB001B30FC002730FD00FD0B2D
:10164A00242BFC0B242BFB0B242B07128712B7012C
:10165A00B8010130031790008A11A6208A150130BB
:10166A008316E1000130E2004C30E3008A1176264D
:10167A008A150230E1000830E200B430E3008A1132
:10168A0076268A150B30FB002630FC005D30FD0003
:10169A00FD0B4D2BFC0B4D2BFB0B4D2B00000000C3
:1016AA0001308312031790008A11A6208A15D901E6
:1016BA00DA0100306B06031D642B01306A06031D34
:1016CA00AA2B32308316D500831239088316D60026
:1016DA008A1187278A1532300313D5008A11EB271E
:1016EA008A15700883160313D500D601C830D700AF
:1016FA008A111D278A1501308312031790008A1157
:10170A00A6208A1501308316E1000130E200C830B4
:10171A00E3008A1176268A150230E1000130E200E0
:10172A00A030E3008A1176268A150930FB001E30A4
:10173A00FC00E430FD00FD0BA02BFC0BA02BFB0BE7
:10174A00A02B00008312EA01EB018316D501ED20DC
:10175A000530F4000030F5008A11C0278A15FF30E1
:10176A00F4000330F5008A11DB218A150A30F400EF
:10177A000030F5008A11C0278A158A11AA278A150E
:10178A0070088316C4007108C5007208C600730881
:10179A00C7007008D5007108D6007208D700730810
:0C17AA00D8008A11E8268A15482ADA2B9C
:1018800026308400463083120313F000E0308316C4
:10189000C2000B30C300C821A03084001A30F00011
:1018A00026308316C2000C30C300C8216C3084007F
:1018B0000430F000F8308316C2000730C300C8219E
:0218C00008001E
:080FF00049344E34463400344C
:0217C0000F34E4
:0817C2004E3461344E34003452
:1017CA00483475346D346934643469347434653436
:0417DA003D34003466
:0417DE00303400346F
:0417E200003400349B
:0417E6000034003497
:1017EA00733479347334743465346D346534203425
:1017FA0065346E342034703461346E346E3465343A
:02180A000034A8
:10180C00663469346E3420346134723472346F341B
:0A181C00733461346734653400341E
:041826000034003456
:10182A006134723472346F347334613467346534BA
:0E183A002034673461347A346F346E340034F5
:041848000034003434
:0E184C00703461346E346E346534733400349D
:10185A0053346D346134723474342034473461340F
:0A186A007234643465346E340034C7
:0C187400673461347A346F346E34003411
:02400E007A3BFB
:00000001FF
